:020000022000DC
:1060000000000120DD0A03001D0B03001F0B03002D
:10601000210B0300230B0300250B030000000000ED
:10602000000000000000000000000000590A03000A
:10603000290B030000000000790A03002D0B030068
:106040002F0B03002F0B030061E40200C9DC0200E8
:106050002F0B0300E98302002F0B03002F0B03001B
:106060002F0B03002F0B03002F0B03002F0B03003C
:106070002F0B03002F0B03002F0B03002F0B03002C
:106080002F0B0300E50703002F0B03002F0B03006A
:106090002F0B03002F0B0300E9CA02002F0B030094
:1060A0002F0B03002F0B03002F0B03002F0B0300FC
:1060B0002F0B03002F0B0300000000000000000066
:1060C0002F0B03002F0B03002F0B03002F0B0300DC
:1060D0002F0B03002F0B03002F0B03000000000009
:1060E00000000000000000000000000000000000B0
:1060F00000000000000000000000000000000000A0
:10610000000000000000000000000000000000008F
:10611000000000000000000000000000000000007F
:10612000000000000000000000000000000000006F
:10613000000000000000000000000000000000005F
:10614000000000000000000000000000000000004F
:10615000000000000000000000000000000000003F
:10616000000000000000000000000000000000002F
:10617000000000000000000000000000000000001F
:10618000000000000000000000000000000000000F
:1061900000000000000000000000000000000000FF
:1061A00000000000000000000000000000000000EF
:1061B00000000000000000000000000000000000DF
:1061C00000000000000000000000000000000000CF
:1061D00000000000000000000000000000000000BF
:1061E00000000000000000000000000000000000AF
:1061F000000000000000000000000000000000009F
:10620000F1EE103A43F08073E1EE103A704700BFB0
:1062100010B5054C237833B9044B13B10448AFF3E0
:1062200000800123237010BD78380020000000009A
:10623000ACBB030008B5034B1BB103490348AFF3E4
:10624000008008BD000000007C380020ACBB0300CB
:10625000154B002B08BF134B9D46A3F5803A002138
:106260008B460F461348144A121A11F042FE0F4B88
:10627000002B00D098470E4B002B00D098470020F1
:10628000002104000D000D48002802D00C48AFF397
:10629000008011F0B1FD200029000AF06DFC11F022
:1062A00085FD00BF00000800000001200000000084
:1062B00000000000783800206C5D00200000000025
:1062C0000000000008B5032112200AF0A7FF0321F7
:1062D0000846BDE808400AF0A1BF00BF2DE9F04123
:1062E00008F00CF9044612200BF042F8A0F1010767
:1062F00003200BF03DF83849384E0B78B7FA87F792
:106300007F09A0F101050022B5FA85F5BB42804660
:106310004FEA5515327072702FD0314B31481A78D0
:106320000F70AA42046004D02F4A1D701460BDE8AB
:10633000F0812D4F3B68E41A132CF8D92B4B1A78B7
:10634000AA42F4D0B8F1010F1D70F0D1284A2948B3
:1063500013882949294C86F8018043F002031380F1
:10636000B425002350220B702570027008F0C6F887
:10637000234B50301860BDE8F0811949194A08785C
:106380001268194FA842A4EB020221D0132A0D7003
:106390003C60CCD91B4A11789942CBD01370002BAA
:1063A000C8D0134ADFF854C013881348114943F08A
:1063B0000103138000238CF800300370B422012302
:1063C00033700A7008F09AF80D4B50301860B1E73E
:1063D000132ADFD8AEE700BFA43800209838002089
:1063E000A53800209C380020A0380020AD380020BF
:1063F000AA380020A7380020A6380020A83800209E
:1064000094380020AC380020054B1B6800209AB25D
:1064100062F30F001B0C82B063F31F4002B07047A1
:1064200098380020024B002218881A80704700BF5D
:10643000AA38002070B506460D46144608F05EF8EE
:10644000084B1B6898420AD20749084A084B09784A
:1064500012781B7831702A702370012070BD0020E3
:1064600070BD00BF94380020A8380020A738002055
:10647000A63800202DE9F04F83B0DFF8ACB0DFF88C
:10648000ACA0254D254C41F28836E9464FF0010875
:1064900005E0013EB6B208F03DF8002E38D02049A4
:1064A0009BF800309AF800200978204604F0D8F9CB
:1064B000012128780AF0B2FE012128780AF046FF6F
:1064C0000027184B00938DF804708DF8058099E82B
:1064D0000600204604F070F9394628780AF036FFA5
:1064E0000521204604F0CCF93946204604F0C8F9CD
:1064F0000121074628780AF029FF204604F0AAF96E
:10650000287801210AF022FFFB074FF00100C0D4D8
:1065100003B0BDE8F08F00BF0C360020483D0020DE
:106520000E36002080841E000F3600200D3600201D
:106530002DE9F04F83B0414CDFF810B1DFF810A126
:106540003F4D20F47F67FFF795FF3E499BF80030F1
:106550009AF8002009782046012604F081F928786D
:1065600001210AF05BFE287831460AF0EFFE4FF079
:106570000009354B0093E8468DF805608DF80490CE
:1065800098E80600204604F017F9494628780AF0F2
:10659000DDFE2046062104F073F9314628780AF022
:1065A000D5FE204604F056F9314628780AF0CEFE92
:1065B00024499BF800309AF800200978204604F01E
:1065C0004FF9314628780AF029FE314628780AF03A
:1065D000BDFE1D4B00938DF805608DF8049098E882
:1065E0000600204604F0E8F8494628780AF0AEFE96
:1065F00027F00F072046202104F042F9C7F3074196
:10660000204604F03DF9390A01F0F001204604F07B
:1066100037F94946204604F033F9314628780AF024
:1066200095FE204604F016F9314628780AF08EFED1
:1066300003B0BDE8F04FFFF71DBF00BF483D00208D
:106640000C3600200E36002080841E000F360020FD
:106650000D3600202DE9F04F614D2C68C4F30B037B
:1066600085B0002B00F0B7805E4B5F4E1B78002B8F
:1066700000F0A08033885F1EBFB2FF2F00F29A8027
:10668000E2B21344B3F5807F019200F29380FFF7EA
:10669000F1FE564B564A5749DFF868911B7812783D
:1066A00009785548DFF850B1DFF85CA14FF00108D8
:1066B00004F0D6F899F8000001210AF0AFFD99F82E
:1066C000000041460AF042FE4FF0000C4B488DF8A6
:1066D0000CC002AB02908DF80D8093E8060046488E
:1066E00004F06AF8002199F800000AF02FFE062154
:1066F000584604F0C5F8414699F800000AF026FE15
:10670000584604F0A7F8414699F800000AF01EFE2A
:10671000364B374A37491B7812780978584604F0C7
:106720009FF8414699F800000AF078FD414699F833
:1067300000000AF00BFE4FF0000C30488DF80CC042
:1067400002AB02908DF80D8093E80600584604F0E5
:1067500033F8002199F800000AF0F8FD02215846AC
:1067600004F08EF8C4F30741584604F089F8C4F3E6
:106770000721584604F084F80199584604F080F83F
:106780000AEB08031F441AF8011B584604F078F876
:106790005745F8D1012199F800000AF0D7FD1648B5
:1067A00004F058F899F8000001210AF0CFFDFFF736
:1067B00061FE2C68124A04F580740023B4F5803F12
:1067C000338028BF4FF480532C60146028BF2B60A7
:1067D00005B0BDE8F08F2046FFF7AAFE2C6843E71E
:1067E00004360020B2380020AE3800200F360020DA
:1067F0000D3600200E360020483D002080841E000B
:10680000083600200C360020B83800202DE9F04171
:10681000DFF8C4C0DFF8C4E02B4B2C4F1B7882B0EC
:10682000064615462A489CF800200C469EF80010A3
:1068300004F016F8387801210AF0F0FC38780121CC
:106840000AF084FD234B00934FF0000801238DF8DC
:1068500005308DF8048002AB13E906001C4803F0F4
:10686000ABFF414638780AF071FD0321184804F067
:1068700007F8C6F30741164804F002F8C6F30721EB
:10688000134803F0FDFFF1B2114803F0F9FF65B1C1
:10689000013D0F4E14FA85F5013C0021304603F00E
:1068A000EFFF04F8010FAC42F7D1012138780AF06C
:1068B0004DFD074803F0CEFF3878012102B0BDE856
:1068C000F0410AF043BD00BF0F3600200C36002017
:1068D000483D002080841E000D3600200E3600202A
:1068E0002DE9F04F5048514D5149524A04682B78D8
:1068F00008681178504A87B0039400240490ADF8DA
:106900001410ADF81640029213B907B0BDE8F08F2D
:106910002046FFF70DFE2B78002BF6D0474FDFF80F
:1069200028B1DFF828A1DFF82891454DFFF7A2FD37
:106930009BF800309AF8002099F80010384601269C
:1069400003F08EFF287801210AF068FC3146287890
:106950000AF0FCFC3B4B00938DF804408DF8056079
:10696000E84698E80600384603F026FF21462878D6
:106970000AF0ECFC0621384603F082FF3146287805
:106980000AF0E4FC384603F065FF314628780AF047
:10699000DDFC9BF800309AF8002099F8001038468A
:1069A00003F05EFF314628780AF038FC314628783B
:1069B0000AF0CCFC234B00938DF805608DF8044061
:1069C00098E80600384603F0F7FE214628780AF0DA
:1069D000BDFC0221384603F053FF2146384603F040
:1069E0004FFF2146384603F04BFF2146384603F05F
:1069F00047FF0DF107040DF1170614F8011F384683
:106A000003F03EFFA642F8D1012128780AF09EFC4F
:106A10000A4803F01FFF287801210AF097FC07B00D
:106A2000BDE8F04FFFF726BD08360020B238002041
:106A3000BC390020D93900204C303452483D002068
:106A40000C36002080841E000F3600200D360020FA
:106A50000E3600202DE9F0410F4FDFF84C800F4E2D
:106A60000F4D39700F4C327001212B7088F80000E7
:106A70000AF0D4FB98F8000001210AF067FC3B788B
:106A800032782978204603F0EBFE204603F03CFEE6
:106A90000120BDE8F08100BF0F3600200D36002038
:106AA0000E360020483D00200C3600202DE9F04F26
:106AB000DFF83CB2DFF83CA2DFF83C92834C9BF855
:106AC00000309AF8002099F80010814889B003F04E
:106AD000C7FE207801210AF0A1FB207801210AF0ED
:106AE00035FC9BF800309AF8002099F8001078489F
:106AF000012603F0B5FE207801210AF08FFB2078F3
:106B0000314600250AF022FC724B04930DF1100867
:106B10008DF815608DF8145098E806006C481F46F3
:106B200003F04AFE294620780AF010FCAB216848A1
:106B300003F0A6FE314620780AF008FC644803F012
:106B400089FE314620780AF001FC304607F0E2FC6D
:106B50009BF800309AF8002099F800105C4803F088
:106B60007FFE314620780AF059FB314620780AF042
:106B7000EDFB04978DF815608DF8145098E8060029
:106B8000534803F019FE294620780AF0DFFB9F21C5
:106B90004F4803F075FE29464D4803F071FE294623
:106BA00001904B4803F06CFE29460746484803F025
:106BB00067FE3146009020780AF0C8FB444803F095
:106BC00049FE314620780AF0C1FB019B009A591E0C
:106BD000C9B23F0247EA0343FD293F4942EA0302A3
:106BE0000A603E4A94BF33462B46137003D92846A9
:106BF00009B0BDE8F08F9BF800309AF8002099F8B2
:106C0000001033480495C8E90155C8F80C5003F04A
:106C100027FE314620782E4F0AF000FB31462078BF
:106C20000AF094FB2B4B02938DF80D6002AB8DF8AC
:106C30000C5093E80600384603F0BEFD2946207844
:106C40000AF084FB0321384603F01AFE2946384631
:106C500003F016FE2946384603F012FE2946384650
:106C600003F00EFE0DF10F050DF11F060021384651
:106C700003F006FE05F8010FAE42F7D1012120789E
:106C80000AF064FB124803F0E5FD207801210AF0C8
:106C90005DFB134B049A9A4213D19DF81C20059B6F
:106CA0001049114C0B6002F00102A3F58053B3F5BB
:106CB000704F0E482270069A026024BF4FF4805332
:106CC0000B60064B187809B0BDE8F08F0C36002039
:106CD000483D002080841E00C0390020B2380020CA
:106CE0004C30345208360020D9390020BC390020FD
:106CF0000F3600200D3600200E360020014B18788C
:106D0000704700BFB2380020014B1878704700BFB1
:106D1000D9390020034A044B0168116001221A701E
:106D2000704700BFB4380020D83900202DE9F8435F
:106D3000B64B1A7805460E4682B1B54C2278002132
:106D4000197092B1B34A11784B1E042B06D8DFE8B4
:106D500013F03900EB00C2001E019B00AE4B187807
:106D6000002840F02982BDE8F883AC49AC4B0968A3
:106D7000AC4A1868AC4B126899700F0ADF700F0CA0
:106D8000090E5971110A9A71D971110C120E5A72A9
:106D9000020C197218739A72A44C1F712022000AF7
:106DA00003215A73D8720E2219809B4B22709E4980
:106DB000284600251D7011F078F8237833700120E3
:106DC000BDE8F8839A4F9B4B9B499C4ADFF84C9255
:106DD000DFF85082012038704FF480501860002393
:106DE0000B801370C8F80030C9F80000FFF7A0FB53
:106DF0002378002B40F024812378002B40F043813E
:106E00002378002B40F034812378002B40F05E8102
:106E10002378002B40F043812378002B40F04A81F7
:106E20002378002B40F01781FFF75AFD3A787E4B0C
:106E300094F90070032119700AB147F002077848ED
:106E4000D9F800100068D8F800205F701873070C9C
:106E5000000A4FEA112C9F72D8720F0C080E734C67
:106E600099709A7183F803C01F714FEA122C170CA6
:106E7000110E58710E22202083F807C01F7259721C
:106E800058732270644B92E791785378D47843EA30
:106E900001231BB29AB2002C40F0AF8010210C46A7
:106EA00002F580500144B1F5803FDBB24FEA122277
:106EB00040F274815C494442E4B20527CC704B70C7
:106EC0008A700F70002C40F06F8104221146574CDD
:106ED000514B21706BE7564B50481B780068514A64
:106EE0004F4C12682768514C002B4F4B08BF0121B3
:106EF000597003211970010AD970010C1971110A16
:106F00009A71D971110C120E5A723A0C987019724A
:106F10001F739A72000E3F0A20210E225871DF72F1
:106F2000597322703C4B42E7434B414F1B88002270
:106F30003A70002B40F0D680FFF7D2FC3A4B3A78FB
:106F400094F9004003211970002A5BD13349354A76
:106F5000096812685C70324899700C0ADC700C0C7D
:106F6000090E00685971110AD971110C1C719A71BE
:106F70001972120E010C2D4C5A729972070A0E22C8
:106F800020211873DF7259732270234B0FE70023FF
:106F9000274F18463B70FFF7CBFA2378002B40F0C1
:106FA000A4802378002B40F0C3802378002B40F08E
:106FB000B3802378002B40F0A3802378002B40F08F
:106FC000E1802378002B40F0D1802378002B40F023
:106FD000C0802378002B40F0B780DFF8409015493F
:106FE000154ADFF840804FF48053C9F800300B6039
:106FF00000231380C8F8003016E7102C28BF102497
:1070000021464DE744F00204A0E700BFD839002034
:10701000B2380020B4380020B138002008360020F3
:10702000C0390020BC390020C4390020B03800200D
:10703000D939002004360020AE380020B8390020AD
:107040004FF40050FFF774FA237803B34FF4405025
:10705000FFF76EFAD0E64FF46040FFF769FA237845
:10706000002B3FF4E1AE4FF47040FFF761FADBE62E
:107070004FF4C040FFF75CFA23785BB34FF4E04075
:10708000FFF756FAC0E64FF48040FFF751FA237835
:10709000002BF1D04FF4A040FFF74AFAB0E64FF4CE
:1070A0002040FFF745FA237843B14FF43040FFF713
:1070B0003FFAB1E64FF44040FFF73AFA2378002B4D
:1070C000CDD04FF45040FFF733FAA9E64FF400401B
:1070D000FFF72EFA2378002BE5D04FF41040FFF78E
:1070E00027FA95E6FFF7B6FA26E74FF48050FFF748
:1070F0001FFA237803B34FF40050FFF719FA50E753
:107100004FF4E040FFF714FA2378002B3ED04FF401
:107110000040FFF70DFA50E74FF4A040FFF708FAE0
:107120002378002BF0D04FF4C040FFF701FA40E77E
:107130004FF44050FFF7FCF92378002BF0D04FF4C8
:107140008040FFF7F5F930E74FF47040FFF7F0F9B2
:1071500043E74FF45040FFF7EBF92378002B3FF45F
:107160003CAF4FF46040FFF7E3F932E74FF43040B3
:10717000FFF7DEF92378002BEFD04FF44040FFF704
:10718000D7F922E74FF41040FFF7D2F92378002B0C
:10719000F0D04FF42040FFF7CBF912E7084905275C
:1071A0004B708A70CC700F70224606490434FFF78A
:1071B0002DFBE1B20A468AE6034C2278F7E500BFD0
:1071C000C4390020C8390020B03800202DE9F0472C
:1071D0003D4D2B78002B38D03C4B1B78ABB3A0B384
:1071E0003B4A13780133DBB2042B30D9394F3B884B
:1071F0000021E02B0446117062D8DFF8E0C0DFF810
:10720000E080DCF80010D8F80060B1F5803F06F1AE
:1072100001061ED320686168A268E3682E4DDFF87E
:10722000C4E0C8F800600FC5A269E369206961691C
:107230004FF481540FC54FF480522023CEF8004004
:10724000CCF800203B80F30636D0BDE8F087137001
:10725000FBE73A88204BD4F80090D4F804E0D4F847
:1072600008C0E06843F8029013442032C3F804E0F9
:10727000C3F808C0D86092B2DFF868A0D4F81090C4
:10728000D4F814E0D4F818C0E069C8F800601144DC
:10729000FF2A3A80CAF80010C3F81090C3F814E02F
:1072A000C3F818C0D861CED92B78002BCBD0FFF70C
:1072B000D1F9D8F80060C6E7BDE8F047FFF710BB8A
:1072C000FFF7C8F999E700BFB2380020D93900208C
:1072D000B8390020AE380020B8380020043600202D
:1072E000BC390020083600203BB11378034AA3F1D3
:1072F0000103B3FA83F35B0913707047183600205B
:10730000032B00D870471046FFF704BD022B0ED99F
:1073100030B407481578074C07490570074B557876
:10732000907825700122087030BC1A707047704741
:10733000573B0020563B0020543B0020553B00208B
:1073400030B5014683B0474805F0C6FB20B1C823DD
:107350000C22062104F0C0F902AC434B002124F8B2
:10736000021D0222C3F8F025012009224FF4003546
:10737000C3F80005C3F81855C3F81025C3F8141551
:107380001A46C3F82C46C3F83006C3F80011C3F8F8
:107390000411C3F814111860D2F80031002BFBD08F
:1073A000002001233049C2F800015360D1F80431B4
:1073B000002BFBD0002001232B4AC1F804018B6075
:1073C000D2F81431002BFBD00023C2F81431C2F8DC
:1073D0000035BDF80620120448BFADF80630BDF8F0
:1073E0000630224A1BB2C3EB0313C3EB03131B018A
:1073F00082FB03121A44DB17C3EBE2239AB240F676
:10740000B7318A422BD8B2F5FA6F26D9184AA3F5BC
:10741000FA64A2FB0434C4F3C7042146154805F0FE
:10742000B7FB2146134805F0BBFB4FF0A04340F2E9
:1074300003324FF000644FF080504FF00051C3F81A
:107440006C27C3F87027C3F87427C3F80845C3F83E
:107450000805C3F8081503B030BD0024DDE7642437
:10746000DBE700BF783D002000700040810008800D
:10747000CDCCCCCCDC3900202DE9F0439FB001F01D
:1074800039FAFEF72BFFFEF7BFFF10F0FF0F039056
:1074900004D0AC4A137883F00103137001AA0DF1F4
:1074A00003010DF10200FEF7C5FF002840F0FC804B
:1074B000A54B1A78002A40F0CC801EA9002301F8C1
:1074C000733D04A8FFF732FC002840F014819F4868
:1074D00005F0D6FA78B107F011F89D4A136841F229
:1074E0008731C31A8B42054600F24881954C2378B8
:1074F00003F0FF062BB9052007F00CF81FB0BDE81C
:10750000F083944803F0F2FE8046934803F0EEFEC9
:107510008146B8F1000F40F09681002800F09C836E
:107520008E4A8F4913680968EB1A9942E6D88D4F45
:1075300015603B6801333B60FFF7E6FB054600281A
:1075400040F08E810023CDE90E33CDE91033CDE933
:107550001233B9F1000F00F087833A68A3F1333397
:10756000A3FB0213DB0803EB8303B2EB430F00F032
:107570008982FFF7C9FB002840F084820026002D95
:10758000BCD0FFF7C1FB0028B8D009AD0FCD14ACBB
:107590000FC42B682360002E00F09683DFED727A13
:1075A0009DED0E0A20EE270A0FF0EEFEB0F5004F1B
:1075B00080F2828310F5004FC0F2BE83C3B2C0F3E5
:1075C00007209DED0F0A8DF864308DF865000FF0EF
:1075D000DBFE9DED100A8DF86600010A020C030E19
:1075E0008DF867108DF868208DF869300FF0CCFEAB
:1075F0000028C0F27A834FF6FF739842A8BF18465E
:10760000C4B2C0F30723BDF848209DF84D108DF893
:107610006A40100A8DF86B308DF86C208DF86D0083
:10762000002900F04C83DFED507A9DED110A20EE29
:10763000270A0FF0A9FEB0F5004FC0F280837F202B
:10764000FF238DF86E308DF86F0014A8FFF7BEFD94
:1076500054E7464A464C1870127846492378097810
:10766000D2B2DBB29A421046C9B238BF184688423D
:1076700038BF084630B39A42C0F0D7818A42C0F082
:10768000D4814FF0A04340F203324FF000604FF03E
:107690008051C3F86C27C3F87027C3F87427C3F868
:1076A0000C05C3F808151FE09DF802109DF8032093
:1076B0009DF8040091420B4638BF1346834238BF01
:1076C00003462BBB4FF0A04340F203324FF0006063
:1076D0004FF08051C3F86C27C3F87027C3F87427A4
:1076E000C3F80805C3F808154FF0A0434FF0005247
:1076F000C3F80825E1E6204803F0F8FD00283FF430
:10770000E6AE04A99DF805201B4803F023FEDEE643
:10771000914201D38142B4D28242C0F089814FF0BC
:10772000A04340F203324FF000604FF08051C3F8A5
:107730006C27C3F87027C3F87427C3F80805C3F88B
:107740000C15D1E718360020553B0020783D00206D
:10775000203C0020B03B00204C3A0020243C00207C
:1077600014360020803C00200000C842573B002017
:10777000563B0020543B0020FC3A00201EACB84B86
:107780001060002124F86E1D0222C3F8F0250120AC
:1077900009224FF40036C3F80005C3F81865C3F892
:1077A0001025C3F814151A46C3F82C46C3F8300642
:1077B000C3F80011C3F80411C3F814111860D2F80B
:1077C0000031002BFBD000200123A549C2F80001A5
:1077D0005360D1F80431002BFBD000200123A04AD4
:1077E000C1F804018B60D2F81431002BFBD00023C8
:1077F000C2F81431C2F80035BDF80A20120448BF9F
:10780000ADF80A30BDF80A30964A1BB2C3EB031339
:10781000C3EB03131B0182FB03121A44DB17C3EBF8
:10782000E2239AB240F6B7318A4200F2E081B2F523
:10783000FA6F40F2F0818C4AA3F5FA64A2FB04349B
:10784000C4F3C704D4E1894A894913680968EB1A6B
:1078500099423FF653AE874F15603B6801333B605A
:1078600014A801F049FCDFED847A9DED140A20EEA6
:10787000270A0FF089FDB0F5004F80F2C98110F59D
:10788000004FC0F2FE81C3B2C0F30720DFED7A7A69
:107890009DED150A8DF8243020EE270A8DF825007D
:1078A0000FF072FDB0F5004F80F2CA8110F5004F65
:1078B000C0F2F981C3B2C0F30720DFED6F7A9DED0E
:1078C000160A8DF8263020EE270A8DF827000FF0D3
:1078D0005BFDB0F5004F80F2B08110F5004FC0F2B3
:1078E000DF81C3B2C0F30720DFED647A9DED170A94
:1078F0008DF8283020EE270A8DF829000FF044FD7E
:10790000B0F5004F80F2968110F5004FC0F2D181A2
:10791000C3B2C0F30720DFED597A9DED180A8DF848
:107920002A3020EE270A8DF82B000FF02DFDB0F540
:10793000004F80F27C8110F5004FC0F2B781C3B2D6
:10794000C0F30720DFED4D7A9DED190A8DF82C303C
:1079500020EE270A8DF82D000FF016FDB0F5004F30
:1079600080F2748110F5004FC0F29481C3B2C0F36D
:1079700007209DED1A0A8DF82E30F2EE047A20EEE3
:10798000270A8DF82F000FF0FFFCB0F5004F80F2B2
:107990005A8110F5004FC0F27A81C3B2C0F30720BC
:1079A0009DED1B0A8DF83030F2EE047A20EE270AA6
:1079B0008DF831000FF0E8FCB0F5004F80F24981FE
:1079C00010F5004FC0F26081C3B2C0F307209DEDF7
:1079D0001C0A8DF83230F2EE047A20EE270A8DF878
:1079E00033000FF0D1FCB0F5004F80F21D8110F58F
:1079F000004FC0F25281C2B2C0F307209DF874302C
:107A00008DF834208DF83500002B00F02B811C4BB5
:107A10001B88DAB21B0A8DF836208DF83730B8F1A2
:107A2000000F40F0FA8035468CE58B42BFF477AE0C
:107A30004FF0A04340F203324FF000644FF080500B
:107A40004FF00051C3F86C27C3F87027C3F87427B0
:107A5000C3F80845C3F80805C3F80C152DE500BFA9
:107A60000070004081000880CDCCCCCC243C0020AC
:107A700014360020803C002000007A440000C842F8
:107A8000103600200EA801F071F93F68B74BA3FB38
:107A90000723DB0803EB8303B7EB43077FF46FADEA
:107AA000DFEDB37A9DED0E0A20EE270A0FF06CFC95
:107AB000B0F5004F80F2118110F5004FC0F2468101
:107AC000C3B2C0F307209DED0F0A8DF850308DF83A
:107AD00051000FF059FC9DED100A8DF85200020A7A
:107AE000030C000E8DF853208DF854308DF855009E
:107AF0000FF04AFC0028C0F203814FF6FF73984252
:107B0000A8BF1846C1B2C0F30723BDF848208DF8BE
:107B100056109DF84B108DF85730130A8DF85820E9
:107B20008DF859309DF84A7009B147F002079DF869
:107B30004C300BB147F00407FFF7E0F808B147F00D
:107B400008079DF84D300BB147F0100700F040FCDE
:107B500008B147F020079DF84CC0BCF1000F00F0C1
:107B6000D2809DF84D308DF85A703F0A8DF85B70C9
:107B7000002B00F0B580DFED7E7A9DED110A20EE3E
:107B8000270A0FF001FCB0F5004FC0F2E2807F2021
:107B9000FF238DF85C308DF85D00FEF743FC237801
:107BA000074613B140F00407BFB2FFF7ADF810B1BC
:107BB00047F00807BFB2FFF7A1F810B147F0100770
:107BC000BFB200F005FC002800F0928047F02003CF
:107BD0009BB21C0A102214A966488DF85E308DF8FD
:107BE0005F4003F0B7FB002D3FF488ACC9E4642488
:107BF0002146614804F0CCFF2146604C5E4804F009
:107C0000CFFF237803F0FF06002B3FF474AC78E439
:107C10007F20FF233AE60024EAE7142209A9584806
:107C200003F098FB35468DE47F20FF22E6E67F20B7
:107C3000FF2387E67F20FF236DE67F20FF2353E6A7
:107C40007F20FF2339E67F20FF23A9E67F20FF2343
:107C50008FE67F20FF23BAE6FFF756F800287FF46F
:107C60005FAC48E41A46D6E6FFF74EF80646002811
:107C70003FF484AC0EA801F079F8002D3FF43EAC3F
:107C80007FE48020002301E6802000239FE68020FF
:107C9000002385E6802000236BE680200022ADE6ED
:107CA0008020002320E68020002306E68020002399
:107CB00048E6802000232EE67F20FF2381E447F65C
:107CC000FF73ADF86E30C0E447F6FF73CDE9196677
:107CD000ADF86C60ADF86E30B7E47F20FF23F2E6BC
:107CE00047F6FF73ADF85C3057E700231C468AE483
:107CF00000F074FB030203F4E0633B439BB268E7CC
:107D00000023194601E71EAB02AA03F86FCD0DF15F
:107D100007010DF106008DF806C08DF807C08DF83B
:107D200008C001F00BF89DF806301B0203F4FE4377
:107D30001F4347F4004714E78020002341E410F577
:107D4000004F0DDBC3B2C0F307207AE43B4680202E
:107D5000B9E610F5004F06DBC3B2C0F3072018E701
:107D6000802000236DE48020002312E7CDCCCCCC12
:107D70000000C8424C3A0020DC39002018360020B0
:107D8000B03B00202DE9F0434FF0102383B0D3F82F
:107D90000C32D9071AD4624A0123C2F80435D2F84A
:107DA0000034002BFBD04FF010236FF001015C4A30
:107DB000C3F80C12D2F80034002BFBD00023584932
:107DC000C2F80435D1F80034002BFBD001211E206D
:107DD00009F024FA01211E2009F0B8FA4FF0A04062
:107DE00040F203334FF000624FF080514FF00054E7
:107DF000C0F86C37C0F87037C0F874371F23C0F86C
:107E000008251A22C0F808151921C0F808451E20B7
:107E1000FEF720FEFEF74AFEFEF754FA0321414822
:107E200004F0F8FB002201213E4804F029FC00F098
:107E3000DBFD04213B4804F0C1FD3B49394804F017
:107E400095FD3A49374803F04DFF0C22062135488D
:107E500003F03EFF02AC364804F0CAFE354B002169
:107E600024F8021D0222C3F8F025012009224FF454
:107E70000035C3F80005C3F81855C3F81025C3F83A
:107E800014151A46C3F82C46C3F83006C3F800117F
:107E9000C3F80411C3F814111860D2F80031002B94
:107EA000FBD0002001232349C2F800015360D1F820
:107EB0000431002BFBD0002001231E4AC1F804012D
:107EC0008B60D2F81431002BFBD00023C2F81431A0
:107ED000C2F80035BDF80620120448BFADF80630E0
:107EE000BDF80630144A1BB2C3EB0313C3EB0313F4
:107EF0001B0182FB03121A44DB17C3EBE2239AB285
:107F000040F6B7318A421BD8B2F5FA6F40F21A81B7
:107F10000A4AA3F5FA61A2FB0131C1F3C70110E0DF
:107F200000E00140783D0020CCB203004173020024
:107F3000DC3900200070004081000880CDCCCCCC22
:107F40006421AB4804F024FEAA4804F065F810212F
:107F5000A94803F081F900221121A74803F094F900
:107F60001421A54803F07EF9A34802F00BFF0C2171
:107F7000A24803F071F911221146A04803F084F9D8
:107F800001219E4803F06EF901229D499B4803F0B0
:107F900081F99A4802F0F6FE10219A4803F05CF944
:107FA00000221121974803F06FF91021954803F042
:107FB00059F9944802F0E6FE0C21934803F04CF97D
:107FC00011221146904803F05FF903218E4803F017
:107FD00049F901228D498C4803F05CF98A4802F086
:107FE000D1FE0C218A4803F037F911221146884846
:107FF00003F04AF90421864803F034F90122854947
:10800000834803F047F9824802F0BCFE1021824801
:1080100003F022F9002211217F4803F035F91421E1
:108020007D4803F01DF97C4802F0ACFE06217B4838
:1080300002F0F8FC794802F0DDFC6E49774802F066
:1080400095FC6B49754802F091FC744802F0A4FC61
:10805000734802F0A1FC0121704802F01BFDA02230
:1080600011466E4802F012FD00216C4802F00CFD32
:1080700000216A4802F07CFD01F0EEFA8146FEF72D
:1080800015FD00F0A5F9002800F0918000F050FEE9
:108090004FF0A04400286349634B40F2033515BFFD
:1080A0000C200A20502264224FF000664FF08057C7
:1080B0004FF0005808601A80FA20C4F86C57C4F8D2
:1080C0007057C4F87457C4F80C65C4F80875C4F840
:1080D000088506F01FFAC4F86C57FA20C4F87057E8
:1080E000C4F87457C4F80865C4F80C75C4F808855A
:1080F00006F010FAC4F86C57FA20C4F87057C4F8A8
:108100007457C4F80865C4F80875C4F80C8506F0FF
:1081100001FAC4F86C57C4F87057C4F87457C4F81F
:108120000865C4F80875C4F80885B9F1000F0BD1CB
:10813000FEF7E4FD00283DD13C4B01221A7003B04C
:10814000BDE8F0830021FCE6C4F86C57C4F8705712
:10815000C4F87457C4F80865C4F80C75C4F80885E9
:10816000FEF7CCFD0028E7D0782006F0D3F9C4F85C
:108170006C57B420C4F87057C4F87457C4F8086535
:10818000C4F80875C4F80C8506F0C4F9C4F86C5737
:10819000C4F87057C4F87457C4F80865C4F80C756F
:1081A0004FF0A0434FF00052C3F80825C4E700F099
:1081B0001BFC6BE7782006F0ADF9C4F86C57B420CF
:1081C000C4F87057C4F87457C4F80865C4F8087543
:1081D000C4F80C8506F09EF9C4F86C57C4F87057C3
:1081E000C4F87457C4F80865C4F80875D8E700BF28
:1081F000DC390020083C0020B03B0020583B002028
:10820000E97202004C3A0020283C00200D73020065
:10821000A43A002001730200FC3A00200040002034
:10822000444000201436002010360020183600206C
:1082300010B5044B044640F8083B03F029FF2046E4
:1082400010BD00BF40B3030010B5074B044640F813
:10825000183B02F07DFD2046044B40F8083B03F03C
:1082600017FF204610BD00BFE8B3030040B3030072
:10827000F0B5424F4249434C434E444D85B06846A9
:1082800003F01CFF6946384603F0E2FE684603F03F
:10829000FFFE224638463E493E4F0FF06FF86846D3
:1082A0003D4903F00BFF6946304602F09BFF6846EC
:1082B00003F0EEFE2246294630460FF05FF868468E
:1082C0003649374E03F0FAFE6946384602F08AFF17
:1082D000684603F0DDFE2246294638460FF04EF888
:1082E00068463049304F03F0E9FE6946304602F0F7
:1082F00079FF684603F0CCFE2246294630460FF04F
:108300003DF8684629492A4E03F0D8FE69463846AA
:1083100002F068FF684603F0BBFE22462946384655
:108320000FF02CF868462349234F03F0C7FE694637
:10833000304602F057FF684603F0AAFE224629465F
:1083400030460FF01BF868461C491D4E03F0B6FE80
:108350006946384602F046FF684603F099FE224619
:10836000294638460FF00AF8304604F01DFC224634
:10837000304614490FF002F805B0F0BD083C00206B
:10838000B4B1030000360020B03B002051AD020024
:1083900031820200583B0020DCB1030004B203002C
:1083A0004C3A00202CB20300283C002054B20300B9
:1083B000A43A00207CB20300FC3A0020A4B20300DF
:1083C000DC3900204982020042DF704744DF7047F9
:1083D000014B1878704700BF8A3C0020014B187889
:1083E000704700BFCC3C00202DE9F043BC4B1A681D
:1083F00085B0002A40F01C81BA4B1A68002A40F070
:10840000DE80B94B1A68002A40F09B80B74B1A688F
:10841000002A6FD1B64B1A68002A43D1B54B1A68AF
:108420004ABBB54B1A6812B905B0BDE8F083B34A30
:10843000D2F804235007F7D500221A60BFF34F8FFC
:10844000AF4AB04B01211170DB68D90104D5AE4BA6
:108450001A68D20700F1178107F0D4FAAB4BA0FBE2
:108460000301830A43EA8153A94A03F59673136013
:1084700005B0BDE8F083A14AD2F804130C06D0D5AC
:108480000021D2F804041960BFF34F8F4FF0FF337F
:108490000128C2F80434C4D19E4B1A78002AC0D0F7
:1084A0001970BEE7954AD2F804134D05B6D50021E0
:1084B0001960BFF34F8F8C4C4FF0FF30C2F80C04A3
:1084C0002160BFF34F8F1960BFF34F8F9249C2F8FD
:1084D0000C04A3F58673C2F81015402515244FF43B
:1084E00088600121C2F81455C2F82045C2F804037F
:1084F000196093E7814AD2F80413CE068AD5002189
:108500001960BFF34F8F08331960BFF34F8F1033DB
:108510001960BFF34F8F80494FF0FF30A3F586738A
:10852000C2F80C044025C2F8101515244FF48860D9
:108530000121C2F81455C2F82045C2F8040319609D
:1085400068E76E4CD4F8042357067FF55FAF00252B
:108550001D60BFF34F8FD4F82425C2F30B02103AED
:10856000C2F3CC02002A71D06B4E31783A2900F068
:108570008D8040F2DB80502900F0F780602940F0C8
:108580009480664B594A93E8030086E8030015601F
:10859000BFF34F8F40231721A2F58272C4F81065F4
:1085A0000325C4F814351020C4F818150121C4F8A7
:1085B0001C35C4F80C55C4F80403116026E74F4A73
:1085C000D2F8041309037FF51CAF00211960BFF333
:1085D0004F8F454D2960BFF34F8F454C2160BFF34E
:1085E0004F8F43F83C1CBFF34F8F4D4F494E4FF018
:1085F000FF330120C2F80C34C2F8043438703170F3
:108600002960BFF34F8F2160BFF34F8F4549C2F8F8
:108610000C34414EC2F81065402515244FF4886390
:10862000C2F81455C2F82045C2F804330860E8E6E1
:10863000324AD2F8042390077FF5DEAE00221A609A
:10864000BFF34F8F364B01221A70D5E61A60BFF385
:108650004F8F10331A60BFF34F8F2F4A4FF0FF3107
:10866000A3F58673C4F80C144025C4F81025152012
:108670004FF488610122C4F81455C4F82005C4F8E9
:1086800004131A60C2E65B689B09EDE6022A0CD966
:10869000B37871788B4208D30F2B06D85F1C7F1AF2
:1086A000BF00BFB2402F40F2F880104A0023337061
:1086B0001360BFF34F8F114B1B49C3F81065402067
:1086C000C3F814050422032510240120C3F818253B
:1086D000C3F81C25C3F80C55C3F80443086095E69D
:1086E000045100404C5100401851004010510040CE
:1086F000285100401C5100400851004000500040EB
:10870000893C0020F0ED00E0001000E040420F0046
:10871000843C0020103D0020D03C0020E4B2030047
:10872000883C00201C5000400C5000403029BCD137
:10873000012A24D11D60BFF34F8F684B1D60BFF32A
:108740004F8F4FF0FF31A3F58673C4F80C1440250A
:1087500015204FF48861C4F81065C4F81455C4F8A6
:108760002005C4F804131A6050E65D485D4A0123F1
:108770004FF48A610370C4F80813136046E67378F7
:10878000594A5A4F03F00F039B0003F1040E03F103
:10879000050C981DD91D0EF03F0E0CF03F0C00F09B
:1087A0003F0001F03F0112F80E9012F8008012F81D
:1087B0000CE012F801C08DF8049003F1080003F1F9
:1087C000090100F03F0001F03F0112F800908DF820
:1087D00005E003F10A0012F801E08DF8068003F1CC
:1087E0000B0100F03F0001F03F0112F800808DF80E
:1087F00007C003F10C0012F801C08DF8089003F1D6
:108800000D0100F03F0001F03F018DF809E012F882
:10881000019012F800E08DF80BC003F10E0003F197
:108820000F0100F03F0001F03F0112F800C0505C62
:108830008DF80EC0D118D35C8DF80030CB7891F84C
:1088400001C08A788DF8033004AB8DF802208DF8D2
:108850000A808DF80CE08DF80D908DF801C08DF830
:108860000F0013E90F0086E80F003D60BFF34F8F44
:108870001F4BC4F8106540271726802503201021C0
:108880000122C4F81475C4F81865C4F81C55C4F85E
:108890000C05C4F804131A60B8E5134B3A4603EB11
:1088A000810130460FF001FB104B1D60BFF34F8F6D
:1088B0000F4AC4F81065FB009BB24027172603251A
:1088C00010200121C4F81475C4F81865C4F81C35CB
:1088D000C4F80C55C4F80403116097E52851004012
:1088E000103D0020285000408C3C002010510040DA
:1088F0000C500040314B1B78002B51D070B5304DDF
:108900002B78002B2FD12F4C23785BB32E4BDB68B9
:10891000D90146D52D4B1A68D20742D55B689B0911
:108920002B4A12689B1A002B1CDB2A4A2A494FF457
:108930008A600023C2F808030B60BFF34F8F103129
:108940000B60BFF34F8F41F8183CBFF34F8F2348A4
:1089500023494FF48056C2F80865012202602B704B
:108960000B70237070BD1B4B164CD3F83C34DB07E7
:10897000CAD4154B01222270DB68DE0103D5134BEC
:108980001A68D00716D407F03DF8164BA0FB030178
:10899000830A43EA81530E4A03F596731360B3E7E3
:1089A000704707F02FF80F4BA0FB0301830A43EA3F
:1089B0008153B5E75B689B09EDE700BF8A3C002067
:1089C000883C0020893C0020F0ED00E0001000E031
:1089D000843C0020005000401851004008500040E6
:1089E000103D002040420F002DE9F04F934D944C74
:1089F000944B0020287020701B6813F0010385B091
:108A000004D00123237005B0BDE8F08F04AE46F812
:108A1000043D3046FFF7DAFC039B002B00F0E880B2
:108A20004FF0805A884EDAF85084DAF854745FFABE
:108A300087F9B9F1880FC8F3072306F108004FF052
:108A400038024FF0000108BF4FF0990901930FF071
:108A500050FA019BDFF810C273705FFA88FBC8F30D
:108A6000074883EA080286F800B08BEA020B86F812
:108A700003B0BCE8070086F80280DAF850E4DAF8C0
:108A8000543486F804904FEA172986F805904FEA87
:108A900017493F0EF771DFB2DFF8D08186F80690F4
:108AA000BCF800A0C6F80C8040F603694FF0FE0B3E
:108AB000882FC6F81200C6F81610C6F81A20A6F8B5
:108AC0001090A6F81EA086F820B04FEA1E204FEAAC
:108AD0001E464FEA13224FEA13484FEA136100F093
:108AE00090801B06594FDFF888A14FF0FF3C4FF0F4
:108AF0000009C7F808C3CAF80090BFF34F8F0AF106
:108B0000040ACAF80090BFF34F8F0AF1440ACAF86A
:108B10000090BFF34F8F4AF8309CBFF34F8F120481
:108B20004FEA08291FFA89F902F47F084FEA0E423A
:108B3000F6B248EA090E02F47F0200024EEA010191
:108B4000324380B219430243C7F804C4C7F89425DE
:108B5000C7F89015D7F8A0353D4A3E4923F0C00329
:108B600043F04003C7F8A035D7F8A03523F01F0322
:108B700043F00403C7F8A035D7F8A03523F4706399
:108B8000C7F8A035D7F8A4354FF0010C23F06003E7
:108B900060204FF490694FF480584FF0030E202668
:108BA000C7F8A435C7F80495C7F80885C7F80CE5D9
:108BB000C7F800C2C7F8041382F80503C2F8806141
:108BC00092F80513EC2349090B4113EA0C001BD062
:108BD000214B996861BB1660204A21482149012335
:108BE00013600022027022700A7018462B700AE788
:108BF000FFF7EAFB58B102230020237005B0BDE85F
:108C0000F08F4FF019436DE704232370FBE605F066
:108C100075FC074605E005F071FCC01BB0F5FA7F56
:108C2000E9D23046FFF7D2FB039B002BF3D0F7E6E7
:108C30001A6842F020021A60CEE700BF8A3C00208A
:108C4000CC3C00200C1200108C3C00200050004056
:108C500000E100E0860008005C5D00200850004054
:108C6000883C0020893C0020D4B20300E110060FAC
:108C7000045100404378007840EA032000B2704776
:108C80004278007840EA0220704700BFF8B50E4EE7
:108C90000E4F3378834202D13B788B4212D00D467F
:108CA00004460B4804F0F2FE2A462146084804F028
:108CB000E3FE074804F06CFE0649054804F0B8FEE0
:108CC00034703D70F8BD00BF1B3600201A360020FE
:108CD00054410020A0860100F8B50F4B0F4E1C78C0
:108CE00033780F4A0F4F1578A34202D13B78AB423D
:108CF00010D00D4804F0CAFE2A4621460A4804F066
:108D0000BBFE094804F044FE0849074804F090FE01
:108D100034703D70F8BD00BF1E3600201B360020A9
:108D20001C3600201A36002054410020A086010085
:108D3000014B1878704700BF163D002070B4074EF5
:108D4000074D36780670074C07482D780D7024784B
:108D500001781470197070BC704700BF123D00207C
:108D6000143D0020113D0020133D0020014B1978D7
:108D700001F07ABA163D002070B50B4C0E46014644
:108D80002046154604F0D8FE3146204604F0B8FDD2
:108D90002946204604F0B4FD204604F03FFFB0FA17
:108DA00080F0400970BD00BF54410020F8B5054671
:108DB0000E461348294614461F4604F0BDFE3146B0
:108DC0000F4804F09DFD00210D4804F0BFFE08B1DE
:108DD0000020F8BD2946FAB2094804F063FEB84203
:108DE000F6D150B12044064E451E013C304604F0F9
:108DF0007FFD04F8010FAC42F8D10120F8BD00BF9F
:108E0000544100202DE9F843DFF89880244C3225A6
:108E100098F800702046394604F08EFE0321204663
:108E200004F06EFD0021204604F090FE064610B1CD
:108E30000020BDE8F88339460122204604F032FEC6
:108E400001288146F4D1204604F052FD98F80070C4
:108E50002046394604F070FE1B21204604F050FDE8
:108E60003146204604F072FE48B1012005F052FB65
:108E7000681E10F0FF05CBD12846BDE8F8834A46AE
:108E80003946204604F00EFE01280646EDD1204664
:108E900004F02EFD4307E8D43046BDE8F88300BF58
:108EA0005441002019360020F8B5304D082406E062
:108EB0000F2005F02FFB601E10F0FF0454D00E2190
:108EC000284604F039FE0721284604F019FD002148
:108ED000284604F03BFE06460028E9D101220E2177
:108EE000284604F0DFFD01280746E1D1284604F0BA
:108EF000FFFCC0B2C428DBD10E211C4804F01CFECC
:108F000010211A4804F0FCFC3146184804F0F8FC23
:108F1000164804F083FE0A2005F0FCFA0E211348DF
:108F200004F00AFE1121114804F0EAFC80210F48E8
:108F300004F0E6FC0D4804F071FE0F2005F0EAFA9B
:108F40000E210A4804F0F8FD1021084804F0D8FC6E
:108F50003946064804F0D4FC044804F05FFE1420AF
:108F600005F0D8FA3846F8BD2046F8BD5441002037
:108F700010B5014604465F4804F0DEFD40215D481F
:108F800004F0BEFC28215B4804F0BAFC594804F008
:108F900045FE2146574804F0CFFD4121554804F0D5
:108FA000AFFC0321534804F0ABFC524804F036FEFA
:108FB0002146504804F0C0FD42214E4804F0A0FC78
:108FC00028214C4804F09CFC4A4804F027FE214626
:108FD000484804F0B1FD4321464804F091FC0021CB
:108FE000444804F08DFC434804F018FE012005F0CD
:108FF00091FA21463F4804F09FFD7E213D4804F050
:109000007FFC11213B4804F07BFC3A4804F006FE4B
:109010000A2005F07FFA2146364804F08DFD7E21B6
:10902000344804F06DFC1521324804F069FC3148E5
:1090300004F0F4FD552005F06DFA21462D4804F0AA
:109040007BFD40212B4804F05BFC2821294804F0DB
:1090500057FC284804F0E2FD2146264804F06CFD48
:109060004121244804F04CFC0321224804F048FC30
:10907000204804F0D3FD21461E4804F05DFD422146
:109080001C4804F03DFC28211A4804F039FC19481A
:1090900004F0C4FD2146174804F04EFD4321154855
:1090A00004F02EFC0021134804F02AFC114804F0BF
:1090B000B5FD21460F4804F03FFD03210D4804F0A3
:1090C0001FFC00210B4804F041FD08B1002010BD39
:1090D00021460122074804F0E5FC0128F6D10548A5
:1090E00004F006FC00F03C00A0F11400B0FA80F09F
:1090F000400910BD544100202DE9F04FC74EC84D26
:10910000282285B0002104460EF0F3FE32782B7839
:1091100084F8242084F825300AB9002B44D0DFF8E5
:1091200034B3C04F9BF800A03978BF4BDFF82893C9
:1091300093F80080514503D199F80010414513D0B0
:10914000BA4804F0A3FC42465146B84804F094FCE7
:10915000B64804F01DFCB649B44804F069FC327806
:1091600087F800A089F800800ABB2B78E3B1B14BE7
:109170001D78002D40F02D81AF4E3378002B40F04C
:1091800006810E21A94804F0D7FC0121A74804F06C
:10919000B7FB0021A54804F0D9FC002800F08D8021
:1091A0003378002B40F0A08005B0BDE8F08FA34BD2
:1091B0009E481E78314604F0BFFC0C219B4804F009
:1091C0009FFB0021994804F0C1FC0028CDD1314615
:1091D0000C22964804F066FC0C28C6D1DFF84CA29D
:1091E0000DF1040804AE504604F082FB08F8010BB0
:1091F0004645F8D19DF805109DF804609DF80730AC
:109200009DF809209DF806009DF80DC09FED8C4A41
:10921000DFED8C4A46EA01269DF8081040EA03205B
:1092200041EA02219DF80B309DF80A2042EA032210
:109230009DF80C3043EA0C2312B21BB206EE902AC2
:1092400007EE103A9DF80F209DF80E3043EA0223F6
:109250001BB236B200B209B207EE903A05EE106AC0
:1092600005EE900A06EE101AB8EEC55AF8EEE55A69
:10927000B8EEC66AF8EEE66AB8EEC77AF8EEE77AB4
:1092800025EE045A65EE845A26EE046A66EEA46A58
:1092900027EE247A67EEA47A2B7884ED035AC4ED86
:1092A000045A84ED056AC4ED006A84ED017AC4EDC8
:1092B000027A002B7FF45BAF76E706220E215B4833
:1092C00004F0F0FB06287FF46BAFDFF860A10DF12E
:1092D00004080DF10A05504604F00AFB08F8010BDA
:1092E0004545F8D1357805B39BF800603B784E4A88
:1092F000B34292F8008003D199F80030434511D071
:109300004A4804F0C3FB42463146484804F0B4FBE7
:10931000464804F03DFB4649444804F089FB3E7052
:1093200089F80080002D3FF43FAF9DF804609DF860
:1093300005109DF806509DF807209DF808009DF83F
:1093400009309FED416A41EA062142EA052243EADB
:10935000002309B212B21BB206EE901A07EE102AD1
:1093600007EE903AF8EEE66AB8EEC77AF8EEE77ADA
:1093700066EE866A27EE067A67EE867AC4ED066A9E
:1093800084ED077AC4ED087A05B0BDE8F08F2F4B65
:109390003A7893F800802E49424591F800A004D114
:1093A00099F8002052453FF4ECAE204804F06EFBE3
:1093B000524641461D4804F05FFB1C4804F0E8FAA1
:1093C0001B491A4804F034FB87F8008089F800A094
:1093D000D7E61A4B15481D78294604F0ADFB042149
:1093E000124804F08DFA0021104804F0AFFB002869
:1093F0007FF4DAAE294606220C4804F053FB062817
:109400007FF4D2AE094F01AD0DF10A06384604F0E3
:109410006FFA05F8010BAE42F8D186E7153D002042
:10942000163D00201B3600201C3600205441002031
:10943000A0860100173D0020183D002019360020AD
:1094400090C1793D00008038CDCCCC3D1F36002046
:109450001D3600201E3600201A3600202DE9F04F60
:10946000714C724D2378724A2870834285B08046D1
:10947000894611706F4D02D12B788B4212D06E4805
:1094800004F004FB4A4641466B4804F0F5FA6A488A
:1094900004F07EFA6949684804F0CAFA84F800804A
:1094A00085F80090FFF700FD04AD46F6690325F846
:1094B000043D614C07460DF10E0A15F8016B20467C
:1094C000314604F039FB0021204604F019FA00214E
:1094D000204604F03BFBD8B1AA45EED1A7B1584CC9
:1094E00000232370574A5849584B594D82F8008041
:1094F0000127002281F800901A702F7000F0E0FC24
:1095000028B3277807B92F78384605B0BDE8F08F23
:1095100001223146204604F0C5FA01288346DBD1FA
:10952000204604F0E5F9C0B2D128D5D13046FFF786
:109530001FFDD0B1474B424C1E7001232370002FFA
:10954000D0D1434D2F7000F0BBFC0028D9D176203C
:1095500000F0D2FC20B9772000F0CEFC0028D0D05B
:109560004946404600F0BEFCCBE70190314620461C
:1095700004F0E2FA7E21204604F0C2F9B62120462A
:1095800004F0BEF9204604F049FB962004F0C2FF27
:109590003146204604F0D0FA019B2046194604F0DB
:1095A000AFF9019B2046194604F0D0FA002893D168
:1095B0005A463146204604F075FA01288CD12046DF
:1095C00004F096F9C0B2D12886D14FF0030B304693
:1095D000FFF7CEFC0028ADD1142004F09BFF0BF167
:1095E000FF3111F0FF0BF2D13146204604F0A4FA0E
:1095F0005946204604F084F95946204604F0A6FA5C
:1096000000287FF469AF01223146204604F04AFA6F
:1096100001287FF461AF204604F06AF9C0B2D12876
:109620007FF45AAF86E700BF1B3600201E360020AD
:109630001C3600201A36002054410020A08601006C
:10964000153D00201F3600201D360020183D00204B
:10965000163D0020193600202DE9F04F994ADFF819
:10966000A082994F994E9A4D00241470994A88F817
:10967000004089B0FF23147033702B703C7000F0F1
:10968000F5FB2146072007F0C9FD2146082007F019
:10969000C5FD2146142007F0C1FD8F4A8F4B05926E
:1096A000A146A246069305AC04EB090314F8090091
:1096B000597887F800A088F800A0FFF7CFFE09F1DD
:1096C000020908B13B788BB9B9F1080FECD14FF022
:1096D000000904EB090314F809005978FFF7BEFEEE
:1096E00009F1020910B9B9F1080FF2D17C4B7D4A9A
:1096F00093F800A02B7892F80090534502D133786C
:109700004B4512D0784804F0C1F94A465146764894
:1097100004F0B2F9744804F03BF97449724804F05B
:1097200087F985F800A086F80090DFF8BC914FF02B
:10973000000A4FF0030B5946484604F0FDF948462D
:1097400004F06CFA0BF1010350B9BAF1070F07D816
:1097500008AA52440AF1010A02F814BC5FFA8AFA14
:109760005FFA83FBBBF1780FE5D1614B83F800A072
:10977000BAF1000F40F0C6805E4B83F800A098F865
:109780000030002B00F004810021084600F0B0FCFE
:1097900000F0A2FB002800F00182514B514A93F8DF
:1097A00000902B7814784B4502D13378A34211D026
:1097B0004D4804F06BF9224649464B4804F05CF9E9
:1097C000494804F0E5F84949474804F031F985F87B
:1097D000009034703B78002B40F0118298F80030F4
:1097E00023B13C4B1B78002B00F0DB81B9F1130F48
:1097F00002D13378152B12D03B4804F047F91522DB
:109800001321394804F038F9374804F0C1F83749D2
:10981000354804F00DF9132215232A703370324CA9
:109820004FF000094FF0030A5146204604F084F936
:10983000204604F0F3F90AF1010350B9B9F1070F1A
:1098400007D808AA4A4409F1010902F814AC5FFAE2
:1098500089F95FFA83FABAF1780FE5D1264B83F8DC
:109860000090B9F1000F01D09DF80C901C4B234AD9
:109870001C782B781B4982F80090A34291F800A035
:1098800002D13378534511D0174804F0FFF85246FF
:109890002146154804F0F0F8134804F079F813490C
:1098A000114804F0C5F82C7086F800A03B7823B965
:1098B00098F80030002B00F09881012009B0BDE835
:1098C000F08F00BF183D0020153D00201A36002003
:1098D0001B360020173D00200B0C0C0B0D0E0E0D3F
:1098E0001E3600201C36002054410020A0860100B6
:1098F000123D0020143D0020113D0020133D0020AA
:10990000163D00209DF80C30C44A0E2B137038D041
:10991000BAF1010F3FF433AF9DF80D300E2B30D06C
:10992000BAF1020F3FF42BAF9DF80E300E2B28D06A
:10993000BAF1030F3FF423AF9DF80F300E2B20D068
:10994000BAF1040F3FF41BAF9DF810300E2B18D066
:10995000BAF1050F3FF413AF9DF811300E2B10D064
:10996000BAF1060F3FF40BAF9DF812300E2B08D062
:10997000BAF1070F3FF403AF9DF813300E2B7FF4BD
:10998000FEAE0E23137098F80030002B7FF4FCAE6F
:10999000A34ADFF89CA207CA84E807009B4604EBB1
:1099A0000B0114F80B902A784B7801934A450BF180
:1099B000020B504602D132789A4212D004F066F877
:1099C000019A4946504604F057F8504603F0E0FF2C
:1099D0009449504604F02CF89DF8043085F8009026
:1099E0003370FFF761FA002840F02C81BBF10C0FB7
:1099F000D5D198F80030002B7FF4C6AE3B78002B11
:109A00003FF4C2AE884B894A93F800902B781478C3
:109A10004B4502D13378A34211D0854804F036F883
:109A200022464946824804F027F8814803F0B0FFF7
:109A30007C497F4803F0FCFF85F800903470DFF824
:109A4000F8917B4899F8001004F076F86B2178487B
:109A500003F056FF2021764803F052FF744804F0CB
:109A6000DDF899F80010724804F066F87E2170481D
:109A700003F046FF19216E4803F042FF6C4804F0E2
:109A8000CDF80A2004F046FD99F8004068482146C8
:109A900004F052F80321664803F032FF00216448C5
:109AA00004F054F8002800F08681614899F800100D
:109AB000824604F041F84B21504603F021FF1C215F
:109AC000504603F01DFF504604F0A8F899F8001026
:109AD000504604F031F84C21504603F011FF80212C
:109AE000504603F00DFF504604F098F8052004F0AE
:109AF00011FD052499F80010504604F01DF84D2181
:109B0000504603F0FDFE0721504603F0F9FE504693
:109B100004F084F88346002800F0AC800A2004F0AA
:109B2000F9FC631E13F0FF04E4D199F800104048DB
:109B300004F002F84C213E4803F0E2FE21463C4886
:109B400003F0DEFE3A4804F069F899F8001038484E
:109B500003F0F2FF7E21364803F0D2FE182134488C
:109B600003F0CEFE324804F059F899F8001030485E
:109B700003F0E2FF6B212E4803F0C2FE21462C4881
:109B800003F0BEFE2A4804F049F80021084600F020
:109B9000AFFA00F0A1F900287FF4FFAD00F01CFB44
:109BA000FBE5244B1B788BBB1F4B93F800A01F4B8E
:109BB000CA451C7802D13378A34211D01C4803F067
:109BC00065FF224651461A4803F056FF184803F035
:109BD000DFFE1449164803F02BFF85F800A034700F
:109BE000FFF762F995F8009000E600F069F90028A7
:109BF0007FF463AE09B0BDE8F04F00F067B90E4BDB
:109C00001878FFF7B5F995F80090E7E50B4A0C4B8B
:109C100092F800A01C78CA45CDD0CFE7143D0020B3
:109C2000ECB20300A08601001E3600201C36002086
:109C300054410020183D0020193600201F36002016
:109C40001D360020824B834A83F80090824B9DF89A
:109C500004101B7811704B454FF0010288F800206A
:109C600005D17E4B1878019BC01A18BF01207C4B90
:109C7000187089E5FFF7C6F800283FF44FAF99F850
:109C8000003001931946504603F056FF0421504618
:109C900003F036FE5946504603F058FF019B8346B9
:109CA00000287FF43BAF19460122504603F0FAFE2C
:109CB00001287FF433AF504603F01AFEC0B2C42827
:109CC0007FF42CAF99F80010664803F035FF4F2160
:109CD000644803F015FE5946624803F011FE6148DE
:109CE00003F09CFF002872D00A2004F013FC99F8BE
:109CF00000105C4803F020FF4F215A4803F000FE9B
:109D00008021584803F0FCFD564803F087FF0028E7
:109D100000F088800F2004F0FDFB99F800105148F6
:109D200003F00AFF4F214F4803F0EAFD01214D489F
:109D300003F0E6FD4B4803F071FF00285DD01420CE
:109D400004F0E8FB99F80010464803F0F5FE4D21B9
:109D5000444803F0D5FD0121424803F0D1FD4148BC
:109D600003F05CFF99F800103E4803F0E5FE442143
:109D70003C4803F0C5FD08213A4803F0C1FD3948CD
:109D800003F04CFF99F80010364803F0D5FE4C2143
:109D9000344803F0B5FD0221324803F0B1FD3148EB
:109DA00003F03CFF022004F0B5FB2F4A012313709F
:109DB00088F80030E8E4214601222A4803F072FEC8
:109DC00001287FF472AE274803F092FD6DE699F802
:109DD0000010244803F0B0FE4E21224803F090FD0D
:109DE0001021204803F08CFD1E4803F017FF0028C7
:109DF0007FF47AAFFFF706F876E799F80010194874
:109E000003F09AFE4E21174803F07AFD1021154801
:109E100003F076FD134803F001FF00288FD1FEF711
:109E2000F1FF8CE799F800100E4803F085FE4E21F3
:109E30000C4803F065FD11210A4803F061FD094853
:109E400003F0ECFE00287FF465AFFEF7DBFF61E76F
:109E50001F3600201D3600201E3600201C36002034
:109E6000183D002054410020173D0020F0B40C4D57
:109E70000C4F0D4E0D480E4A0E490F4C00232B700F
:109E8000762505703B7033700B200C4B107013203F
:109E900015220C2508701A702570F0BC704700BFA1
:109EA000443D0020453D0020193D00202036002083
:109EB00024360020233600202236002021360020C0
:109EC000014B1878704700BF443D0020014B1878C3
:109ED000704700BF193D0020014B1878704700BF44
:109EE000453D0020024A034B10701970704700BFB7
:109EF00024360020223600202DE9F04188B008AA3F
:109F0000002302F81A3DD02101230546FEF74EFF3B
:109F100028B19DF80630582B06D0602B04D00024C1
:109F2000204608B0BDE8F081A3F160035B4E5C4FB2
:109F30003570B3FA83F35B09B622E02128463B7003
:109F4000FEF71AFF142004F0E5FA307802AA18236D
:109F50008821FEF72BFF04460028E1D002A8FEF777
:109F60008FFEDFF88881A8F800000DF10A00FEF7E7
:109F700081FE4C4B188003A8FEF77CFE4A4B1880EC
:109F80000DF10E00FEF77CFE484B188004A8FEF78A
:109F900071FE474B18800DF11200FEF76BFE454B2A
:109FA000188005A8FEF766FE434B18800DF11600D9
:109FB000FEF760FE414B188006A8FEF75BFE404BA3
:109FC00018800DF11A00FEF755FE3E4B188007A8C9
:109FD000FEF750FE3C4B18800DF11E00FEF74AFEC6
:109FE000B8F800303949013B9BB24FF6FD729342FD
:109FF000088094D83B7883B92722F4212846FEF7BD
:10A00000BBFE28460022F521FEF7B6FE304B0122AA
:10A0100020461A7008B0BDE8F08108AA002302F8B3
:10A02000193DA12101233078FEF7C0FE10B90023AD
:10A030003B70E1E73078072302AAE121FEF7B6FE84
:10A040000028F4D0234B9DF807201A7002A8FEF7D1
:10A0500011FE9DF80C30204A9DF90B601080397874
:10A060001E489DF90D7003F00F0242EA06121B1103
:10A070001B4E028043EA07131A481B4A33809DF89F
:10A080000A609DF80E30067013700029B4D00122CA
:10A09000F2212846FEF770FEAEE700BF2036002012
:10A0A000453D00203A3D00203C3D0020263D00205B
:10A0B000283D00202A3D00202C3D00202E3D002080
:10A0C000303D0020323D0020343D0020363D002050
:10A0D000443D00201A3D00201C3D0020203D002072
:10A0E000223D00201E3D0020243D0020383D002060
:10A0F0002DE9F04F83B002AD304B45F8043D00240C
:10A1000082468946A0462B192F5D5E783846314637
:10A11000FEF7BCFD042200211E20FEF72DFE0234B6
:10A1200038B9042CEFD14FF0000B584603B0BDE80E
:10A13000F08F322004F0EEF9032200211E20FEF7FA
:10A140001BFE0028EDD0142004F0E4F902AA01233C
:10A1500002F8058D00211E20FEF728FE8346002808
:10A16000DFD09DF8033003F00303032BD9D1144B48
:10A17000144D154C2F7001221A702670BAF1000F81
:10A1800001D08AF80070B9F1000F01D089F80060A1
:10A190000E4B1B78002BC8D17620FFF7ADFE30B1F7
:10A1A0000B490C4B2878227808701A70BDE777208D
:10A1B000FFF7A2FE0028F3D1B7E700BF1315151370
:10A1C000193D00202336002021360020443D002088
:10A1D00024360020223600202DE9F04784B01F4BA2
:10A1E0000393002547F27673ADF80830A84603AF15
:10A1F0000DF10A094FEA450A07EB0A0317F81500A3
:10A200005978FEF743FD02AC14F8016B8DF8078016
:10A21000304601230DF10702D021FEF7C7FD18B12A
:10A220009DF80730602B08D04C45EDD11DB10020C2
:10A2300004B0BDE8F0870125DCE73046FFF75CFE9F
:10A240000028F1D004AB9A440549064B1AF8044C97
:10A250001AF8032C0C701A70EAE700BF13151513D7
:10A2600024360020223600202DE9F04F324B334DAA
:10A27000334E1B782A78C6600026C0E904668BB08E
:10A2800004460175C0E9006686608374C274EBB150
:10A290002C4A2D4B11781878FEF7F8FC2B4B2C4AE2
:10A2A0001B781078002B08AB194604930A460CBFA4
:10A2B00006230823F721FEF779FD002850D12B78DB
:10A2C00043B9FEF709FD0BB0BDE8F08F002AFAD0C4
:10A2D00008AB04931F4A204B11781878FEF7D6FC80
:10A2E000022307AA0C211E20FEF760FD78B19DF81D
:10A2F0001D209DF81C309FED197A43EA022307EEDA
:10A30000903AF8EEE77A67EE877AC4ED027A049A1B
:10A3100002230E211E20FEF749FD0028D1D09DF812
:10A3200021209DF82030120102F47C7203F00F030B
:10A3300013432382C5E700BF443D0020193D0020A0
:10A340000000C07F2236002024360020453D00203A
:10A350002036002021360020233600203333B33E40
:10A360009DF824309DF82390D04A9DF825801288CE
:10A37000CF49D048B1F90010B0F900E0CE48DFF87D
:10A3800078C3B0F900009FEDCD7A1B0143EA093391
:10A3900043EA1818C2EB181A0AFB0AFA4FEA2A3ADB
:10A3A0005200C2EBD80201FB0AF189130EFB02F244
:10A3B00001EBE223B3F5FA324FEAE37B05934BF16D
:10A3C000FF339B46924613465A4603FB02F3AAFB11
:10A3D0000A12CDE9001202EB43010191DDE9008987
:10A3E000BCF90020C11700FB09FC08FB01CCA0FB55
:10A3F00008016144D31702FB0BFC070A0AFB03CCDC
:10A4000047EA0167A2FB0A236344CDE902ABBA46DF
:10A41000059F9DF820C04FEA033949EA12594FEAD7
:10A4200002380912A64A07EB87031AEB08008B468D
:10A4300003F180034BEB09011B1210F1000A108895
:10A4400007EE903A41F5004BAAFB002300FB0B33CB
:10A45000F8EEE77A4FEA63084FEAE379994B9DF803
:10A4600021001F6067EE877A58EA0903C4ED007A7D
:10A470009DF8222000F016819349DFF880E2DDE9A3
:10A4800002AB171147EA0017B1F9000000FB0BF20D
:10A49000C1170AFB0122A0FB0A01CDE902010298C3
:10A4A00011444FEA414BBEF9002088494BEAD03BAA
:10A4B0004FEA404A019847EA0C3702FB00FC00983B
:10A4C0000096D31700FB03CCA2FB0023CDE90223A7
:10A4D000B1F9000063440393C300DDE90201C7F54D
:10A4E000801710EB0A00019341EB0B01FB178B4621
:10A4F000D907DDE9002310EB020A4FEAC7704BEBE6
:10A50000030B41EA5701B0EB0A0061EB0B010218A3
:10A51000824641EB010310188B4643EB01010A46CA
:10A520009701860147EA9067801942EB07018B008B
:10A53000820012EB0A0643EA907343EB0B07BB0061
:10A54000B20043EA967316461AEB06001F464BEB21
:10A55000070142464B460DF013FA5D4EDFF8A0E1CD
:10A56000B6F90060BEF900A0DFF898C14B13420BAA
:10A5700042EAC14206FB03F8F71702FB0788A6FB75
:10A580000267474406FB03F302FB0733A6FB02679F
:10A590001F44730E43EAC71300937B1601930AFB13
:10A5A00001FE4FEAEA7BDDE9002300FB0BEEAAFB8C
:10A5B00000ABF3444FEADA48121848EA4B384B41F3
:10A5C00012EB0800BCF900804FEAEB4943EB0901AC
:10A5D000020A4FEAE87942EA01624FEA09174FEAB4
:10A5E00008160B12901947EA187743EB07010DF094
:10A5F00089F9DFED387A07EE100A67EE277A364BD5
:10A60000C4ED017A1B78002B3FF459AE3349344B2B
:10A61000B1F90060334A05991B7892F90020BDF822
:10A620002670A1F5963000FB03F3DB1200FB02F26B
:10A6300003F50043921202FB03F22B492B4BB1F9B5
:10A640000010B3F900307FBA3605BFB2921202F59E
:10A650000012C6EB873600FB116103FB02F303F522
:10A66000005301F58042D2139B1303FB02F32049F0
:10A67000DA1302FB02F20978D21101FB02F2A3EB1A
:10A680002213B3F1C85FA8BF4FF0C85323EAE373A6
:10A690001B1307EE903AFAEECB7A0123C4ED037A4E
:10A6A00063750CE6DFED137AA9E700BF383D0020A3
:10A6B0003C3D00203A3D00202A3D00200AD7233CA3
:10A6C000263D0020403D00202E3D00202C3D002056
:10A6D000363D00200000803B453D0020203D00200D
:10A6E0001E3D0020243D0020223D00201C3D002076
:10A6F0001A3D002000000000283D0020303D0020D1
:10A70000343D0020323D0020417C01B1704770B4DF
:10A710008368827B254C01254574C3F80825427B5C
:10A72000C3F80C252579067B6279C3F81065C3F858
:10A730000015691E12F1FF32C9B218BF01220229A9
:10A74000C5730274206816D9C3F85425184AB2FBA1
:10A75000F0F2B2F5007F13D2FF2A1AD87F2A1ED852
:10A760003F2A19D81F2A1DD8102A34BF4FF00041A4
:10A770004FF0804106E00F4C54F821100A43E3E704
:10A780004FF000710122C3F8241570BCC3F80025F6
:10A7900070474FF08061F5E74FF08051F2E74FF0DE
:10A7A0000061EFE74FF00051ECE700BF5C3D002097
:10A7B0000090D003F8B2030030B482B002AB03E9DA
:10A7C00006009DF804409DF805308268611E13F173
:10A7D000FF33C9B218BF012300250229C2F8005572
:10A7E000C473037403D8194850F821100B43C2F8FE
:10A7F00054350099164BB3FBF1F3B3F5007F18D233
:10A80000FF2B0CD87F2B17D83F2B18D81F2B19D80C
:10A81000102B34BF4FF000414FF0804101E04FF06A
:10A8200080610123C2F82415C2F8003502B030BCA3
:10A8300070474FF00071F4E74FF00061F1E74FF01F
:10A840008051EEE74FF00051EBE700BFF8B2030094
:10A850000090D00383680022C3F80025704700BF32
:10A8600010B4064C54F82110017354F8222082735E
:10A8700054F8233043735DF8044B7047C0B40300B1
:10A880008268C2F81C15D2F80831002BFBD0D2F830
:10A8900018050023C0B2C2F8083170470B4A0C4BB0
:10A8A0000C4970B4D2E90C050B4C966B98730022DE
:10A8B0009C604FF48070094C1E735D73DA731A74D8
:10A8C0000C6088805A7470BC704700BFC0B403002D
:10A8D000483D00205C3D00200030024000093D0062
:10A8E00072DF704773DF704774DF704777DF704740
:10A8F00070B5054608460C4601F000FC102808D04B
:10A90000802812D1A36883B1EA7F0D2A0FDD0020D1
:10A9100070BDEB7FA2881B2BF9DCE9180320E854FB
:10A9200048704A80EB7F0433EB77012070BDA91893
:10A930001120A85407224A7098681E685C68DB687A
:10A94000C1F80E30C1F80A00C1F80260C1F8064033
:10A95000EB7F1233EB770120DAE700BF08B5002167
:10A96000C1771F220DF0C5FA08BD00BF30B5D1E98F
:10A97000035485B04A69074B00936946CDE902420A
:10A980000195FFF7B5FF0446684601F081FB2046BC
:10A9900005B030BD54B30300F0B589B005462022A0
:10A9A0006946134801F0F6FFEB7FC2181D2A0ADD45
:10A9B000C3F11D04E4B2E2181D2A4FF0000615DDB4
:10A9C000304609B0F0BD044601260927EA18601C8C
:10A9D000E85469465770901C22460DF066FAEB7FEA
:10A9E00002331C443046EC7709B0F0BD0827EDE790
:10A9F000783D002010B50446094802F019F8E37FBD
:10AA00001C2B0ADCE2180221E1540A2390705370D7
:10AA1000E37F0333E377012010BD002010BD00BFAA
:10AA2000783D0020C27F1C2A0DDC10B403469C1820
:10AA3000022098540120A1706070DA7F0332DA7727
:10AA40005DF8044B70470020704700BF38B5002404
:10AA50002146C4771F220DF04CFA0949094A0346E2
:10AA6000C3E90E44C3E90C1240F2FF15012083F83C
:10AA7000220083F82340DC621C641D84184638BD24
:10AA80002000F40020001E00C18670474286018627
:10AA90008186704780F82210704700BF2DE9F04191
:10AAA000044690F8210002EB82030E46811E86B018
:10AAB00003EB8303C9B215469B0000220929CDE9A7
:10AAC00002620092ADF80C300192CDE904228DF8BB
:10AAD000000009D8012303FA01F140F2A32319422F
:10AAE0001CBF04F12403019394F82330002B36D1CA
:10AAF0001D4B1E4F9F60A7F53377E17F97F8EB0260
:10AB0000998098816A46194604F120001C60FFF77D
:10AB1000E7FE18B1002006B0BDE8F081384694F891
:10AB2000208001F085FF414602460120FFF7DEFE4E
:10AB30000028EFD1012194F82000FFF7D3FE002870
:10AB4000E8D1384601F0E0FF638FA686AB4294BFA0
:10AB5000DB1A5B1B0120638784F82300DBE794F892
:10AB60002000FFF7C1FEC3E7643D00204440002001
:10AB70002DE9F041044686B041870187FA21324829
:10AB800001F05AFF94F82100E58E278E029705EB1D
:10AB90008503811E03EB8303C9B200229B000929B0
:10ABA00003920092ADF80C300192CDE904228DF8A9
:10ABB000000009D8012303FA01F140F2A32319424E
:10ABC0001CBF04F12403019394F82330002B36D1E9
:10ABD0001E4B1F4E9E60A6F53376E17F96F8EB0282
:10ABE000998098816A46194604F120001C60FFF79D
:10ABF00077FE18B1002006B0BDE8F081304694F829
:10AC0000208001F015FF414602460120FFF76EFE4D
:10AC10000028EFD1012194F82000FFF763FE0028FF
:10AC2000E8D1304601F070FF638FA7869D4294BF44
:10AC30005B1BDB1A0120638784F82300DBE794F8B1
:10AC40002000FFF751FEC3E7783D0020643D00205F
:10AC50004440002030B50B888D88112B85B0044608
:10AC60002CD0262B0FD0102B01D005B030BDCB7BC4
:10AC7000012BFAD1C26A03FA05F515430023C56218
:10AC800080F82330F1E70B7A012BEED1002380F816
:10AC900023304FF4FA71274801F0CEFE238F002BAA
:10ACA00030D0658F002D36D0236C0BB19847658F5F
:10ACB000618E2A462046FFF7F1FED6E7C36AEB40D5
:10ACC000DB07D2D51B4800F0E7FF0028CDD1E36AAF
:10ACD00094F82310012202FA05F523EA0503E36242
:10ACE0000029C2D194F82230002BBED0238F638775
:10ACF000FA21104801F0A0FEE28E218E2046FFF7D7
:10AD0000CDFEB2E7236C03B198470022618E204646
:10AD1000FFF7C4FEA9E7074801F00AFFE26B002A2B
:10AD2000A3D004AB0095294643F8045D284606F0FD
:10AD3000D1F99AE7783D0020AADF7047ABDF704772
:10AD4000ACDF7047ADDF7047AEDF7047B0DF7047F4
:10AD500010B5044B044640F8043B01F099F9204635
:10AD600010BD00BF10B3030010B5054B044640F8FA
:10AD7000043B01F08DF9204605F038FF204610BD58
:10AD800010B30300F0B5854B04461B68836197B090
:10AD9000043001F0C5F994F82E30A06913F03202A6
:10ADA00008BF84F82F2013F00C0308BF84F830305C
:10ADB0000DF10102694601F061F994F82F209DF828
:10ADC0000110100714D09DF8003002F00F0003F0BE
:10ADD0000F06B0424FEA13174FEA121540F289806E
:10ADE00094F82F2060F3030265F3071284F82F20F4
:10ADF00094F830301A0711D003F00F0201F00F055C
:10AE0000AA424FEA13104FEA11166AD994F830306B
:10AE100062F3030360F3071384F8303094F82E20B4
:10AE200012F030036ED10FAD0F93C5E90133C5E9C0
:10AE3000033394F82F108DF83C201846AB610123A2
:10AE40004FF0000263F34202236A14900020ADF831
:10AE500008008DF80A208DF8081013B11A78002A1E
:10AE600033D194F8263013B104F12603129394F8E9
:10AE70003130E28AE169099113F0010F4FF00003CC
:10AE80000CBF10461846CDF81E302946ADF81C0000
:10AE9000ADF82230184604F12F05ADF8202004F15A
:10AEA000080604F1320305AA06950596FFF744FF4C
:10AEB000054638B994F82520002A3DD1257D002D7E
:10AEC00065D00025284617B0F0BD184610930DF048
:10AED000D9FE02AB80B2ADF84400ADF84600139342
:10AEE000BFE74B401B0701D1B0428FD830462A46FE
:10AEF0008CE75A40130702D1BD423FF671AF3D4681
:10AF000030466DE70023012525490F93184665F368
:10AF100042000FAD0E7894F82F108DF83C208DF87C
:10AF200006008DF80460C5E90133C5E90333AB6160
:10AF30008DF8051001A882E70122014662F3420163
:10AF400094F82F508DF80E10022303AE42F608112C
:10AF5000ADF80C008DF812200B968DF80C50ADF862
:10AF6000101004F1240504AE0DEB03020AA9CDF87C
:10AF700032000E95ADF83600ADF83030ADF8343013
:10AF80000A96FFF7DBFE0546002897D09AE7214690
:10AF9000044800F043FE284617B0F0BD743D002081
:10AFA00004B30300003E00202DE9F0410B888E8899
:10AFB000502B8AB00C46054609D0512B04D18B7911
:10AFC000012B42D0022B17D00AB0BDE8F081CB880C
:10AFD000428E9A4226D0EA8E9A42F5D16B6D002BB2
:10AFE000F2D095F84420648A920700F19B802246B3
:10AFF000294630469847E7E7A27B042A58D0062A1C
:10B0000032D0012AE0D1EB6C002BDDD095F8442042
:10B01000170704F1080400F1C08022462946304693
:10B020009847D1E7076D002FD5D090F84430B1F89C
:10B0300010C001F11208D90700F19380634642461F
:10B0400029463046B847E388C5E7836C002BBBD060
:10B0500090F84420520701F1080773D43A46294674
:10B0600030469847A379ADE7EA6B002AACD00022BE
:10B0700002A93046CDE90222CDE904228DF808303C
:10B08000FFF764FE2C6D64B195F84430EF6BB5F8B2
:10B0900042C0D80700F1918063463A4630462946BF
:10B0A000A047E86B03F05EFA0023C5E90F338BE796
:10B0B000E86B002868D0B5F84070218A628A01EBFD
:10B0C000020C00234FF0020EBC45CDE90633CDE95A
:10B0D00008338DF818E008DD40F20913ADF81C3094
:10B0E00006A93046FFF732FE6EE79DF81E30ADF838
:10B0F000201004F1140743F0010308443946ADF869
:10B1000022208DF81E3009970CF0CFFE638A228A28
:10B11000B5F842101A4493B28B4238BF0B46A5F8DB
:10B120004230DDE7032000211A46009006AB0846B6
:10B13000CDE90665089405F0CDFF00287FF444AF03
:10B140006B6D54E703211A46009106AB082138467F
:10B15000CDE90665089705F0BDFF002882D1AB6CEC
:10B160007CE7042300933A46614606AB4046CDE9AE
:10B170000665CDE9088C05F0ADFF00287FF463AFCC
:10B180002F6DB4F810C059E74FF4806003F0D0F988
:10B190004FF48067C5E90F078FE703211A46009136
:10B1A00006AB0E212046CDE90665089405F092FF16
:10B1B00000287FF409AFEB6C2FE7042300932246AD
:10B1C0003846614606ABCDE906650897CDF824C040
:10B1D00005F080FF00287FF464AF2C6DEF6BB5F8AD
:10B1E00042C059E7F0B4D1E90154184ACF68117848
:10B1F000174E856001231A4663F34202154D80F80D
:10B200003120C460002214240761C0E90065C482B3
:10B2100080F82F1080F8301080F844200275826189
:10B2200002628284C0F82620C0F82A2080F82E20EE
:10B23000C261428682860287C286C0E90F22C0E9C7
:10B240001222C0E91422F0BC704700BF04B303000F
:10B2500010B3030054B3030080F82E10704700BFF2
:10B26000C182704739B990F83130012262F300038E
:10B2700080F83130704790F83130C182002262F39B
:10B28000000380F83130704780F82F1080F83020AC
:10B29000704700BF90F84430016562F3000380F806
:10B2A0004430704751F8322F02604A68426070475C
:10B2B00030B5C48A85B0012C28BF01248DF8071051
:10B2C0000023418EADF808400DF1070502AA4FF6A4
:10B2D000FF70ADF80A300395FFF732FD18B9BDF8DD
:10B2E000080005B030BD184605B030BD30B5044685
:10B2F00085B0174801F0E4FB054694F82E0010F0E5
:10B30000100001D105B030BD2946114801F0CCFB39
:10B310000028F7D0E18E11B9084605B030BD2846A7
:10B32000002302AA02250DF10604ADF80A30ADF89B
:10B3300008500394FFF706FD43F20142904205D006
:10B3400008B99DF8060000F00100DBE71846D9E7D0
:10B35000783D00202DE9F04F90F82E30DC0689B0C2
:10B3600005D44FF0000B584609B0BDE8F08F0446F5
:10B37000434815460E4601F0A3FBE38A94F82E20BD
:10B380009D4228BF1D46D206804608D501463C484E
:10B3900001F08AFB834608B1E18EA9B9E38A04AFC4
:10B3A0009D4228BF1D463A460023618EADF81050DD
:10B3B0004FF6FF709B460596ADF81230FFF7C0FCC4
:10B3C000584609B0BDE8F08F002004AF3A464FF070
:10B3D000020CADF812000DF10E034046ADF810C09E
:10B3E0000593FFF7AFFC43F20142904246D008B903
:10B3F000BDF80E0000F0010000283FD04146204873
:10B4000001F06AFB82460028ABD000F051F9033806
:10B4100083B2002DA7D0CDF804B04FF000099B46B1
:10B4200005E0BDF80E30ED1AADB21E441DB3504616
:10B4300000F06AF9AB455B46394628BF2B46002829
:10B440008FD0ADF80E304FF00103628ECDF8129020
:10B4500040468DF812300DF10E03ADF81690CDE98F
:10B460000636ADF81020FFF76FFC0028D9D0504603
:10B4700000F054F975E7DDF804B074E7E38A8FE76C
:10B48000783D00202DE9F04F90F82E3089B0DA0693
:10B490008DF80D1004D40025284609B0BDE8F08FC2
:10B4A0000446494801F00CFBB4F8168094F82E20AD
:10B4B000B8F1010FC34628BF4FF0010BD306074672
:10B4C00009D50146404801F0EFFA054608B1E18E82
:10B4D000C1B9B4F8168004AED845434628BF5B46D0
:10B4E000ADF8103000250DF10D033246618EADF838
:10B4F00012504FF6FF700593FFF722FC284609B063
:10B50000BDE8F08F002004AE32464FF0020CADF8DB
:10B5100012000DF10E033846ADF810C00593FFF789
:10B5200011FC43F2014290424BD008B9BDF80E0025
:10B5300000F00100002844D03946234801F0CCFA3D
:10B5400082460028A7D000F0B3F8033883B2B8F1E0
:10B55000000FA1D00DF10D0801954FF000095D46D7
:10B56000A3464446984605E0BDF80E30ED1AADB24C
:10B570001C4425B3504600F0C7F8A8454346314661
:10B5800028BF2B46002886D0ADF80E304FF00103BF
:10B59000BBF83220CDF8129038468DF812300DF1FC
:10B5A0000E03ADF81690CDE90634ADF81020FFF784
:10B5B000CBFB0028D8D0504600F0B0F86BE7019DD7
:10B5C0006AE7B4F8168087E7783D002075DF70479A
:10B5D0008FDF704790DF7047B1DF7047B5DF70478E
:10B5E00010B5074B03600446806A03F093FEE06ADF
:10B5F00003F090FE206B08B103F08CFE204610BDD6
:10B6000028B3030010B5094B03600446806A03F0B9
:10B6100081FEE06A03F07EFE206B08B103F07AFE43
:10B62000204605F0E3FA204610BD00BF28B3030012
:10B6300070B504468180174E2660012117251B2016
:10B64000E580E08121752174518921819189618191
:10B65000D189A18192E803000D0CA061A183A57797
:10B66000D2796274194618469DF8105003F022F8FA
:10B670002946A062284603F01DF8002311214FF649
:10B68000FF72E062E175628263752363A3752046F1
:10B6900070BD00BF28B30300007D7047407D704738
:10B6A000C07D113818BF0120704700BF407C704733
:10B6B000C08870470089704710B44B7D4BB9183172
:10B6C0000C688A888B790460828083715DF8044BF2
:10B6D00070471F31F4E700BF30B500252C4683B01A
:10B6E00062F30F0461F30F0561F31F4563F31F4419
:10B6F00069468088CDE90054FFF768FFB0FA80F012
:10B70000400903B030BD00BF08B56621806A03F070
:10B710004BFC003018BF012008BD00BF08B5002356
:10B720001A461946806A02F0F7FF003018BF012060
:10B7300008BD00BF00F11F028188407C01F024BBDE
:10B7400038B50A4605460C468188407C01F00AFB64
:10B75000214651F8483FC5F81F308B79888885F815
:10B7600025300123A5F823006B75184638BD00BFAE
:10B7700038B50A4605460C4600F11801407C01F038
:10B7800035FB687550B1214651F8482FC5F81F2088
:10B790008A88897985F82510A5F8232038BD00BF4F
:10B7A00010B5447D24B100F11F01407C01F0FEFA88
:10B7B000204610BD70B50B88113B82B00C46054683
:10B7C000462B2BD8DFE803F03C3F2A2A2A2A2A2AD4
:10B7D0002A462A2A2A2A2A2A545C62682A2A2A2ADB
:10B7E0002A2A2A2A2A2A2A2A2A2A2A2A2A2A2A2AB9
:10B7F0002A6B2A6E2A2A2A2A2A2A2A2A2A2A2A2A24
:10B800002A2A2A2A2A2A2A2A2A247E2A89972C00A6
:10B810000023A8881A461946FFF7DEFE02B070BD65
:10B820008B79002BFAD0002600231A461946A86A05
:10B8300002F072FF0136A379F6B2B342F4D8EDE715
:10B8400000230375EAE74B8903818B894381CB8908
:10B850008381E3E70B7AC375112BDFD000F11F0260
:10B860008188407C01F07AFB03460028D6D1D0E7DE
:10B8700002A9002321F8043D8088FFF7A9FECDE747
:10B880000B7A002BCAD14B7A0374C7E7002211460A
:10B890008088FFF79FFEC1E70B89C381BEE74B8914
:10B8A000C380BBE78B7A002BB8D0002600231A4652
:10B8B0001946E86A02F030FF0136A37AF6B2B342C5
:10B8C000F4D8ABE7006B0123AB750028A6D00023AA
:10B8D0001A46194602F020FFA0E7417C0C4801F00F
:10B8E000F3F8E188814228BF014689B2E980A8883F
:10B8F000FFF774FE92E78B79002B8FD1006BAB754D
:10B9000000288BD01A46194602F006FF86E700BFD2
:10B91000783D0020F0B589B085880E4604A84FF424
:10B92000285117464FF6FF7400F0BAFB0120CDE90D
:10B9300001043346294604AA0097054800F020F880
:10B94000044604A800F0A4FB204609B0F0BD00BFE7
:10B95000003E0020A0DF704738B50446F82500F50A
:10B96000F87001F05FF92A46204600210CF0C1FA78
:10B970002A46601900210CF0BCFA204638BD00BFF1
:10B980002DE9F04782B00546BDF82C60BDF8304087
:10B990001C48ADF8046090469946ADF806400F4645
:10B9A000BDF828A001F098F805F5F875064604E002
:10B9B0003046FFF77FFE02F0ADFD284601F08CF91E
:10B9C00004460028F4D10121284601F035F95246F9
:10B9D0004946284601F04AF908F10401384601AA0F
:10B9E000FFF7B8FF38B94FF4FA71284601F044F96F
:10B9F00020EAE074A4B2284601F028F9204602B0FB
:10BA0000BDE8F087783D00202DE9F04F8F880E8843
:10BA100085B08846054639467F4801F05DF8A6F1B5
:10BA20001003012B814640F28B8095F854203AB3E5
:10BA3000002404F11603502E55F823A059D0512E9E
:10BA40001AD198F80630B8F808B0022B43D0BBF1F1
:10BA5000000F11D051466846FFF724FCBDF80030B6
:10BA60005B4549D0514602A8FFF71CFCBDF80C30DD
:10BA70005B4541D095F854200134E4B29442D8D3C8
:10BA800095F84C31002B00F0C38005F5A679002411
:10BA900004E095F84C310134A34246DD59F8040F17
:10BAA00001F090FCB842F4D1382E03D0392E01D0E9
:10BAB000362EEED1B8F80AA0BAF1000FE9D0D9F8C5
:10BAC00000B0584601F082FC5045E2D1584641464C
:10BAD00001F07EFCDDE798F80E30062BB7D1DAF8DE
